:020000040800F2
:1000000068060020CD0100085D170008651600088D
:100010005917000887020008952600080000000014
:100020000000000000000000000000006117000850
:100030008B020008000000005F1700084D18000840
:10004000E7010008E7010008E7010008E7010008F0
:10005000E7010008E7010008CD150008E7010008E6
:1000600019160008E7010008E7010008E701000889
:10007000E7010008E7010008E7010008E7010008C0
:10008000E7010008E7010008E7010008E7010008B0
:10009000E7010008E7010008E7010008E7010008A0
:1000A000E7010008E7010008E7010008E701000890
:1000B000E7010008CD180008E7010008E701000883
:1000C000E7010008E7010008E7010008E701000870
:1000D000E7010008B51B0008E7010008E701000878
:1000E000E7010008E7010008E7010008E701000850
:1000F000E7010008E7010008E7010008E701000840
:10010000E7010008E7010008E7010008E70100082F
:10011000E7010008E7010008E7010008E70100081F
:10012000E7010008E7010008E7010008E70100080F
:1001300000F002F800F03AF80AA090E8000C8244BF
:100140008344AAF10107DA4501D100F02FF8AFF29C
:10015000090EBAE80F0013F0010F18BFFB1A43F0A5
:1001600001031847682B0000882B0000103A24BFB9
:1001700078C878C1FAD8520724BF30C830C144BF0C
:1001800004680C607047000000230024002500264E
:10019000103A28BF78C1FBD8520728BF30C148BFEA
:1001A0000B6070471FB51FBD10B510BD00F031F8D2
:1001B0001146FFF7F7FF02F06FFA00F04FF803B4B3
:1001C000FFF7F2FF03BC00F057F800000948804732
:1001D00009480047FEE7FEE7FEE7FEE7FEE7FEE729
:1001E000FEE7FEE7FEE7FEE704480549054A064B41
:1001F000704700006D1800083101000868000020F9
:1002000068060020680200206802002070477047DE
:100210007047754600F02CF8AE4605006946534617
:1002200020F00700854618B020B5FFF7DDFFBDE8D8
:1002300020404FF000064FF000074FF000084FF04D
:10024000000B21F00701AC46ACE8C009ACE8C009DE
:10025000ACE8C009ACE8C0098D46704710B504464B
:10026000AFF300802046BDE81040FFF7A8BF0000B4
:10027000004870470400002001491820ABBEFEE78B
:1002800026000200704700BFFEE77047002100E033
:10029000491C8142FCD37047014601F0070212025B
:1002A000054B18684FF6FF031840044B18431043E2
:1002B000014B1860704700000CED00E00000FA05EB
:1002C00010B503460C464FF4285001F0E7F8181219
:1002D00001F0F0F842F6012001F0E0F8D8B201F0A8
:1002E000E9F84FF42C5001F0D9F8201201F0E2F8AF
:1002F00042F6013001F0D2F8E0B201F0DBF84FF441
:10030000305001F0CBF8104601F0D4F810BDF0B534
:1003100004460D46059F00264FF4285001F0BEF814
:10032000201201F0C7F842F6012001F0B7F8E0B260
:1003300001F0C0F842F6022001F0B0F82919491E78
:10034000C1F30F2001F0B6F842F6032001F0A6F841
:100350002919491EC8B201F0ADF84FF42C5001F034
:100360009DF8101201F0A6F842F6013001F096F85F
:10037000D0B201F09FF842F6023001F08FF89918E0
:10038000491EC1F30F2001F095F842F6033001F049
:1003900085F89918491EC8B201F08CF84FF4305016
:1003A00001F07CF800BF03E0384601F083F8761CCA
:1003B00005FB03F0B042F7D8F0BD000010B5574878
:1003C000406940F48070554948610846806940F0B2
:1003D000080088610846806940F02000886108466E
:1003E000806940F0400088610846806940F4807070
:1003F00088614B48006820F00F00494908600846B2
:10040000006840F00300086046480068464908401C
:100410004449086008460068444908434149086067
:10042000081F006800F0FF20091F086008460068E8
:1004300040F0BB1008603E48006800203C4908605E
:100440000846006840F0BB300860081F006820F0D4
:100450007040091F08600846006840F0304008609E
:100460003448406820F470203249486008464068AB
:1004700040F4302048600846006820F00F00086013
:100480000846006840F00B00086000204FF0204153
:100490008861C861284908604FF02040806940F4B5
:1004A00080504FF0204188610846806940F48040C8
:1004B00088610846806940F0100088610846C0697C
:1004C000C8610846C06940F00100C8610846C069BB
:1004D00040F47060C86118480068C1F81C011648F3
:1004E0000068C1F81C010846D0F81C0140F44070B7
:1004F000C1F81C010846806940F0010088610F487E
:10050000FFF7C4FE00F01CF805481030006840F00A
:10051000010003491031086010BD000000100240C6
:10052000000C01400414014000F0FF00BB0B00BBB5
:1005300004180140002001401C0100A020A1070078
:1005400010B555214FF4704000F0ACFFAA214FF2D6
:10055000010000F0A7FF52214FF2020000F0A2FFBD
:1005600008214FF2030000F09DFF01214FF204002B
:1005700000F098FF0D214FF4304000F093FF0D2163
:100580004BF2010000F08EFF0D214BF2020000F053
:1005900089FF35214FF4364000F084FF35214BF2BE
:1005A000016000F07FFF35214BF2026000F07AFF1E
:1005B0000D214FF4314000F075FF0D214BF2011079
:1005C00000F070FF0D214BF2021000F06BFF35219F
:1005D0004FF4374000F066FF35214BF2017000F018
:1005E00061FF35214BF2027000F05CFF00214FF4F7
:1005F000324000F057FF00214BF2012000F052FF83
:1006000000214BF2022000F04DFF24214FF438402E
:1006100000F048FF24214BF6010000F043FF2421A5
:100620004BF6020000F03EFF01214FF43F4000F086
:1006300039FF08214FF4334000F034FF08214BF21A
:10064000013000F02FFF08214BF2023000F02AFFAA
:1006500034214FF4394000F025FF34214BF60110CE
:1006600000F020FF34214BF6021000F01BFF242184
:100670004FF43A4000F016FF24214BF6012000F021
:1006800011FF24214BF6022000F00CFF00214FF453
:100690003C4000F007FF88214BF6014000F002FFCC
:1006A00000214BF6024000F0FDFE00214FF43D40DA
:1006B00000F0F8FE88214BF6015000F0F3FE002117
:1006C0004BF6025000F0EEFE00214FF43E4000F0E9
:1006D000E9FEA3214BF6016000F0E4FE00214FF497
:1006E000514000F0DFFE05214DF2011000F0DAFE6E
:1006F00000214DF2021000F0D5FE40214DF2031012
:1007000000F0D0FE00214DF2041000F0CBFE60217D
:100710004DF2051000F0C6FE00214DF2061000F06B
:10072000C1FE90214DF2071000F0BCFE00214DF2F9
:10073000081000F0B7FE99214DF2091000F0B2FE4A
:1007400000214DF20A1000F0ADFEBB214DF20B105E
:1007500000F0A8FE00214DF20C1000F0A3FEDC21F9
:100760004DF20D1000F09EFE01214DF20E1000F032
:1007700099FE04214DF20F1000F094FE01214DF27C
:10078000101000F08FFE25214DF2111000F08AFEAE
:1007900001214DF2121000F085FE59214DF2131087
:1007A00000F080FE01214DF2141000F07BFE82214A
:1007B0004DF2151000F076FE01214DF2161000F0FA
:1007C00071FEC6214DF2171000F06CFE02214DF2B1
:1007D000181000F067FE01214DF2191000F062FEC2
:1007E00002214DF21A1000F05DFE02214DF21B10A5
:1007F00000F058FE02214DF21C1000F053FE39218A
:100800004DF21D1000F04EFE02214DF21E1000F0C0
:1008100049FE79214DF21F1000F044FE02214DF2F5
:10082000201000F03FFEA1214DF2211000F03AFE11
:1008300002214DF2221000F035FED9214DF2231095
:1008400000F030FE03214DF2241000F02BFE0021B9
:100850004DF2251000F026FE03214DF2261000F087
:1008600021FE38214DF2271000F01CFE03214DF22D
:10087000281000F017FE67214DF2291000F012FE3B
:1008800003214DF22A1000F00DFE8F214DF22B10A6
:1008900000F008FE03214DF22C1000F003FECD21E4
:1008A0004DF22D1000F0FEFD03214DF22E1000F050
:1008B000F9FDFD214DF22F1000F0F4FD03214DF262
:1008C000301000F0EFFDFE214DF2311000F0EAFD96
:1008D00003214DF2321000F0E5FDFF214DF23310FF
:1008E00000F0E0FD00214FF4524000F0DBFD052157
:1008F0004DF2012000F0D6FD00214DF2022000F063
:10090000D1FD40214DF2032000F0CCFD00214DF23D
:10091000042000F0C7FD6D214DF2052000F0C2FD5E
:1009200000214DF2062000F0BDFD90214DF2072080
:1009300000F0B8FD00214DF2082000F0B3FD992130
:100940004DF2092000F0AEFD00214DF20A2000F02A
:10095000A9FDBB214DF20B2000F0A4FD00214DF2BA
:100960000C2000F09FFDDC214DF20D2000F09AFDDF
:1009700001214DF20E2000F095FD04214DF20F20D3
:1009800000F090FD01214DF2102000F08BFD25219B
:100990004DF2112000F086FD01214DF2122000F0F1
:1009A00081FD59214DF2132000F07CFD01214DF213
:1009B000142000F077FD82214DF2152000F072FD29
:1009C00001214DF2162000F06DFDC6214DF21720D9
:1009D00000F068FD02214DF2182000F063FD0121B6
:1009E0004DF2192000F05EFD02214DF21A2000F0B8
:1009F00059FD02214DF21B2000F054FD02214DF261
:100A00001C2000F04FFD39214DF21D2000F04AFD61
:100A100002214DF21E2000F045FD79214DF21F20EC
:100A200000F040FD02214DF2202000F03BFDA1210D
:100A30004DF2212000F036FD02214DF2222000F07F
:100A400031FDD9214DF2232000F02CFD03214DF280
:100A5000242000F027FD00214DF2252000F022FD8A
:100A600003214DF2262000F01DFD38214DF22720F4
:100A700000F018FD03214DF2282000F013FD67213E
:100A80004DF2292000F00EFD03214DF22A2000F046
:100A900009FD8F214DF22B2000F004FD03214DF2C2
:100AA0002C2000F0FFFCCD214DF22D2000F0FAFCAF
:100AB00003214DF22E2000F0F5FCFD214DF22F20F8
:100AC00000F0F0FC03214DF2302000F0EBFCFE21A1
:100AD0004DF2312000F0E6FC03214DF2322000F00F
:100AE000E1FCFF214DF2332000F0DCFC00214FF44B
:100AF000534000F0D7FC05214DF2013000F0D2FC4C
:100B000000214DF2023000F0CDFC40214DF20330C7
:100B100000F0C8FC00214DF2043000F0C3FC6D2150
:100B20004DF2053000F0BEFC00214DF2063000F021
:100B3000B9FC90214DF2073000F0B4FC00214DF2D9
:100B4000083000F0AFFC99214DF2093000F0AAFC0A
:100B500000214DF20A3000F0A5FCBB214DF20B3014
:100B600000F0A0FC00214DF20C3000F09BFCDC21D9
:100B70004DF20D3000F096FC01214DF20E3000F0E8
:100B800091FC04214DF20F3000F08CFC01214DF25C
:100B9000103000F087FC25214DF2113000F082FC6E
:100BA00001214DF2123000F07DFC59214DF213303D
:100BB00000F078FC01214DF2143000F073FC82212A
:100BC0004DF2153000F06EFC01214DF2163000F0B0
:100BD00069FCC6214DF2173000F064FC02214DF291
:100BE000183000F05FFC01214DF2193000F05AFC82
:100BF00002214DF21A3000F055FC02214DF21B305B
:100C000000F050FC02214DF21C3000F04BFC392169
:100C10004DF21D3000F046FC02214DF21E3000F076
:100C200041FC79214DF21F3000F03CFC02214DF2D5
:100C3000203000F037FCA1214DF2213000F032FCD1
:100C400002214DF2223000F02DFCD9214DF223304B
:100C500000F028FC03214DF2243000F023FC002199
:100C60004DF2253000F01EFC03214DF2263000F03D
:100C700019FC38214DF2273000F014FC03214DF20D
:100C8000283000F00FFC67214DF2293000F00AFCFB
:100C900003214DF22A3000F005FC8F214DF22B305C
:100CA00000F000FC03214DF22C3000F0FBFBCD21C5
:100CB0004DF22D3000F0F6FB03214DF22E3000F006
:100CC000F1FBFD214DF22F3000F0ECFB03214DF242
:100CD000303000F0E7FBFE214DF2313000F0E2FB56
:100CE00003214DF2323000F0DDFBFF214DF23330B5
:100CF00000F0D8FB00214FF4544000F0D3FB052155
:100D00004DF2014000F0CEFB00214DF2024000F018
:100D1000C9FB40214DF2034000F0C4FB00214DF21D
:100D2000044000F0BFFB6D214DF2054000F0BAFB1E
:100D300000214DF2064000F0B5FB90214DF2074036
:100D400000F0B0FB00214DF2084000F0ABFB992110
:100D50004DF2094000F0A6FB00214DF20A4000F0E0
:100D6000A1FBBB214DF20B4000F09CFB00214DF29A
:100D70000C4000F097FBDC214DF20D4000F092FB9F
:100D800001214DF20E4000F08DFB04214DF20F4089
:100D900000F088FB01214DF2104000F083FB25217B
:100DA0004DF2114000F07EFB01214DF2124000F0A7
:100DB00079FB59214DF2134000F074FB01214DF2F3
:100DC000144000F06FFB82214DF2154000F06AFBE9
:100DD00001214DF2164000F065FBC6214DF217408F
:100DE00000F060FB02214DF2184000F05BFB012196
:100DF0004DF2194000F056FB02214DF21A4000F06E
:100E000051FB02214DF21B4000F04CFB02214DF240
:100E10001C4000F047FB39214DF21D4000F042FB21
:100E200002214DF21E4000F03DFB79214DF21F40A2
:100E300000F038FB02214DF2204000F033FBA121ED
:100E40004DF2214000F02EFB02214DF2224000F035
:100E500029FBD9214DF2234000F024FB03214DF260
:100E6000244000F01FFB00214DF2254000F01AFB4A
:100E700003214DF2264000F015FB38214DF22740AA
:100E800000F010FB03214DF2284000F00BFB67211E
:100E90004DF2294000F006FB03214DF22A4000F0FC
:100EA00001FB8F214DF22B4000F0FCFA03214DF2A3
:100EB0002C4000F0F7FACD214DF22D4000F0F2FA6F
:100EC00003214DF22E4000F0EDFAFD214DF22F40AE
:100ED00000F0E8FA03214DF2304000F0E3FAFE2181
:100EE0004DF2314000F0DEFA03214DF2324000F0C5
:100EF000D9FAFF214DF2334000F0D4FA00214FF42B
:100F0000554000F0CFFA05214DF2015000F0CAFA29
:100F100000214DF2025000F0C5FA40214DF203507D
:100F200000F0C0FA00214DF2045000F0BBFA6D2130
:100F30004DF2055000F0B6FA00214DF2065000F0D7
:100F4000B1FA90214DF2075000F0ACFA00214DF2B9
:100F5000085000F0A7FA99214DF2095000F0A2FACA
:100F600000214DF20A5000F09DFABB214DF20B50CA
:100F700000F098FA00214DF20C5000F093FADC21B9
:100F80004DF20D5000F08EFA00214DF20E5000F09F
:100F900089FA04214DF20F5000F084FA01214DF23C
:100FA000105000F07FFA25214DF2115000F07AFA2E
:100FB00001214DF2125000F075FA59214DF21350F3
:100FC00000F070FA01214DF2145000F06BFA82210A
:100FD0004DF2155000F066FA01214DF2165000F066
:100FE00061FAC6214DF2175000F05CFA02214DF271
:100FF000185000F057FA01214DF2195000F052FA42
:1010000002214DF21A5000F04DFA02214DF21B5010
:1010100000F048FA02214DF21C5000F043FA392149
:101020004DF21D5000F03EFA02214DF21E5000F02C
:1010300039FA79214DF21F5000F034FA02214DF2B5
:10104000205000F02FFAA1214DF2215000F02AFA91
:1010500002214DF2225000F025FAD9214DF2235001
:1010600000F020FA03214DF2245000F01BFA002179
:101070004DF2255000F016FA03214DF2265000F0F3
:1010800011FA38214DF2275000F00CFA03214DF2ED
:10109000285000F007FA67214DF2295000F002FABB
:1010A00003214DF22A5000F0FDF98F214DF22B5013
:1010B00000F0F8F903214DF22C5000F0F3F9CD21A6
:1010C0004DF22D5000F0EEF903214DF22E5000F0BC
:1010D000E9F9FD214DF22F5000F0E4F903214DF222
:1010E000305000F0DFF9FE214DF2315000F0DAF916
:1010F00003214DF2325000F0D5F9FF214DF233506B
:1011000000F0D0F900214FF4564000F0CBF9052152
:101110004DF2016000F0C6F900214DF2026000F0CE
:10112000C1F940214DF2036000F0BCF900214DF2FD
:10113000046000F0B7F96D214DF2056000F0B2F9DE
:1011400000214DF2066000F0ADF990214DF20760EC
:1011500000F0A8F900214DF2086000F0A3F99921F0
:101160004DF2096000F09EF900214DF20A6000F096
:1011700099F9BB214DF20B6000F094F900214DF27A
:101180000C6000F08FF9DC214DF20D6000F08AF95F
:1011900001214DF20E6000F085F904214DF20F603F
:1011A00000F080F901214DF2106000F07BF925215B
:1011B0004DF2116000F076F901214DF2126000F05D
:1011C00071F959214DF2136000F06CF901214DF2D3
:1011D000146000F067F982214DF2156000F062F9A9
:1011E00001214DF2166000F05DF9C6214DF2176045
:1011F00000F058F902214DF2186000F053F9012176
:101200004DF2196000F04EF902214DF21A6000F023
:1012100049F902214DF21B6000F044F902214DF220
:101220001C6000F03FF939214DF21D6000F03AF9E1
:1012300002214DF21E6000F035F979214DF21F6058
:1012400000F030F902214DF2206000F02BF9A121CD
:101250004DF2216000F026F902214DF2226000F0EB
:1012600021F9D9214DF2236000F01CF903214DF240
:10127000246000F017F900214DF2256000F012F90A
:1012800003214DF2266000F00DF938214DF2276060
:1012900000F008F903214DF2286000F003F96721FE
:1012A0004DF2296000F0FEF803214DF22A6000F0B3
:1012B000F9F88F214DF22B6000F0F4F803214DF284
:1012C0002C6000F0EFF8CD214DF22D6000F0EAF82F
:1012D00003214DF22E6000F0E5F8FD214DF22F6064
:1012E00000F0E0F803214DF2306000F0DBF8FE2161
:1012F0004DF2316000F0D6F803214DF2326000F07B
:10130000D1F8FF214DF2336000F0CCF855214FF4B5
:10131000704000F0C7F8AA214FF2010000F0C2F8B7
:1013200052214FF2020000F0BDF808214FF20300F5
:1013300000F0B8F800214FF2040000F0B3F8CC211F
:101340004FF4314000F0AEF800214BF2011000F0F4
:10135000A9F805214FF4364000F0A4F870214FF4AD
:10136000374000F09FF870214BF2017000F09AF8BE
:1013700001214FF4384000F095F805214BF60100AB
:1013800000F090F805214BF6020000F08BF80521E3
:101390004BF6030000F086F800214FF43C4000F0CB
:1013A00081F800214BF6014000F07CF800214BF65B
:1013B000024000F077F8D0214FF4494000F072F875
:1013C00082214CF6011000F06DF850214CF602100D
:1013D00000F068F850214CF6031000F063F850213B
:1013E0004CF6041000F05EF855214FF4685000F000
:1013F00059F84FF4885000F051F80448FEF746FFC2
:101400004FF4245000F04AF810BD0000C0D4010091
:101410002DE9FC4F80460F4615469946202D01DBED
:101420007F2D01D1BDE8FC8FA5F1200000F0FF0A5F
:101430000B9810233A46082100904046FEF767FFBC
:10144000002425E0204604EBD0714910A4EB4101B3
:101450004FEAC10B104800EB0A10005D019007260F
:1014600013E00198304100F0010068B104EBD47240
:1014700008EB620290B207EB0B02D21D921B91B2F5
:101480004A460094FEF71CFF761E002EE9DA641C23
:10149000102CD7DB00BFC5E7DC2600084FF0D84191
:1014A000088070474FF0D8421080014A1180704781
:1014B0000008006C01490880704700000008006CBB
:1014C000104AD26942F002020E4BDA610E4A1080D5
:1014D000121F11800C4A203A128842F001020A4B76
:1014E000203B1A80084A2C3A128842F00102064B2F
:1014F0002C3B1A804523054A13704FF00052044BD1
:101500001A607047001002402C0400401DE400E007
:1015100000E100E0072100202A4A126842F48032EC
:10152000284B1A6000BF274A1268C2F34042002AC3
:10153000F9D0244A526822F40032224B5A601A46EB
:10154000526842F480325A601A46526842EA814236
:101550005A601A46126842F080721A6000BF194A37
:101560001268520E002AFAD0164A526822F001027E
:10157000144B5A601A46526842F002025A6005E063
:10158000104A5268C2F3870000F003000228F7D126
:101590000C4A526822F47C720A4B5A601A4652680E
:1015A00042F480625A603222074B1A60054AD269BF
:1015B00042F40032034BDA611A46926942F48042E7
:1015C0009A617047001002400020024000B50023DD
:1015D00015E00E48006840F020000C4908600C48F7
:1015E000FEF754FE0948001F006840F0200007493C
:1015F000091F08600648FEF749FE581CC3B20A2BB3
:10160000E7DB01200349086000BD00001418014019
:10161000C0C62D001404014000B5002315E00E489B
:10162000006840F020000C4908600C48FEF72EFED0
:101630000948001F006840F020000749091F0860A2
:101640000648FEF723FE581CC3B20A2BE7DB042032
:101650000349086000BD0000140C0140C0C62D0005
:101660001404014000BFFEE71848806940F00800FC
:10167000164988610846806940F020008861144856
:10168000006820F47F40124908600846006840F472
:10169000605008600E480830006840F440600C4913
:1016A000083108600B48006820F470400949086060
:1016B0000846006840F44050086006480C30006856
:1016C00040F0080003490C310860704700100240E8
:1016D000040C01400014014008B5002000901C4893
:1016E000006840F400601A4908605020FEF7CEFD03
:1016F0001748006840F0006015490860002322E0A8
:101700009DF8000040100090114808380068C0F3B0
:10171000802020B99DF8000040F0800000900D4826
:10172000006840F008000B4908605020FEF7AEFD4D
:101730000848006840F40020064908605020FEF781
:10174000A5FD581CC3B2082BDADB9DF8000008BDCC
:10175000100C01401014014000BFFEE770477047B5
:10176000704710B500F002F810BD00000CB5002065
:10177000019000903348006840F48030314908609F
:1017800000BF3048006800F4003000900198401C11
:101790000190009818B90198B0F5A06FF1D12948CF
:1017A000006800F4003010B10120009001E000203A
:1017B00000900098012843D12348006840F01000B1
:1017C000214908600846006820F0030008600846C8
:1017D000006840F0020008601A48406819494860F3
:1017E0000846406848600846406840F480604860A9
:1017F0000846406820F47C1048600846406840F481
:10180000E81048600846006840F08070086000BF3B
:101810000C48006800F000700028F9D009484068C2
:1018200020F00300074948600846406840F0020085
:10183000486000BF0348406800F00C000828F9D158
:101840000CBD000000100240002002400548007856
:10185000401C0449087004480078401C0249087084
:1018600070470000000000200100002010B5134860
:10187000006840F0010011490860084640681049BE
:1018800008400E494860084600680E4908400B4968
:1018900008600846006820F4802008600846406818
:1018A00020F4FE0048604FF41F008860FFF759FFE6
:1018B0004FF000600449086010BD000000100240B5
:1018C0000000FFF8FFFFF6FE08ED00E0F8B5B848AD
:1018D000008800F00100002877D0FFF7FDFE0546E4
:1018E000012459E105F00106002E6FD04FF6FF707C
:1018F0004FF4487300224FF4F07100901046FEF749
:1019000006FD092C10D2DFE804F00F05101B629CC5
:10191000B2DEFD004FF6FF70002341224FF4AF719D
:101920000090FA20FFF774FD32E14FF6FF700023BC
:1019300042224FF4AF710090FA20FFF769FD27E1D2
:101940004FF6FF70002353224FF4AF710090FA203E
:10195000FFF75EFD4FF6FF704FF4FC6345224FF436
:10196000AF7100904FF48170FFF752FD4FF6FF709A
:101970004FF6E0734C224FF4AF7100904FF4857036
:10198000FFF746FD4FF6FF701F2345224FF4AF715E
:1019900000904FF48970FFF73BFD4FF6FF704FF456
:1019A000784343224FF4AF7100904FF48D70FFF7EE
:1019B0002FFD4FF6FF70002354224FF4AF710090BB
:1019C0004FF49170FFF724FDE2E0EAE0E2E04FF629
:1019D000FF70002353224FF4AF710090FA20FFF7FD
:1019E00017FD4FF6FF704FF4FC6354224FF4AF71B4
:1019F00000904FF48170FFF70BFD4FF6FF704FF62C
:101A0000E07341224FF4AF7100904FF48570FFF7FF
:101A1000FFFC4FF6FF701F2352224FF4AF7100906E
:101A20004FF48970FFF7F4FC4FF6FF704FF47843E2
:101A300054224FF4AF7100904FF48D70FFF7E8FC23
:101A4000A6E04FF6FF70002355224FF4AF710090CF
:101A5000FA20FFF7DDFC4FF6FF70002350224FF411
:101A6000AF7100904FF48170FFF7D2FC90E04FF619
:101A7000FF70002344224FF4AF710090FA20FFF76B
:101A8000C7FC4FF6FF7000234F224FF4AF71009058
:101A90004FF48170FFF7BCFC4FF6FF700023572214
:101AA0004FF4AF7100904FF48570FFF7B1FC4FF623
:101AB000FF7000234E224FF4AF7100904FF48970F5
:101AC000FFF7A6FC64E04FF6FF7000234C224FF4B2
:101AD000AF710090FA20FFF79BFC4FF6FF700023D8
:101AE00045224FF4AF7100904FF48170FFF790FCE6
:101AF0004FF6FF70002346224FF4AF7100904FF471
:101B0000857000E00DE0FFF783FC4FF6FF700023C7
:101B100054224FF4AF7100904FF48970FFF778FCB6
:101B200036E04FF6FF70002352224FF4AF71009061
:101B3000FA20FFF76DFC4FF6FF70002349224FF4A7
:101B4000AF7100904FF48170FFF762FC4FF6FF70A9
:101B5000002347224FF4AF7100904FF48570FFF7D8
:101B600057FC4FF6FF70002348224FF4AF710090EE
:101B70004FF48970FFF74CFC4FF6FF70002354229E
:101B80004FF4AF7100904FF48D70FFF741FC00BF30
:101B900000BF04E06D10641C092CFFF6A3AE00BF6B
:101BA00000BF0348008820F0010001490880F8BD0B
:101BB000100400401CB5FE48008800F020000028FA
:101BC0000CD0FB48001D008801900198512806D1D7
:101BD000F848006840F02000F6490860FDE30198ED
:101BE000482808D1F348001F006840F02000F14960
:101BF000091F0860F2E701985228EFD1EC480C3039
:101C0000008800F40040B0F5004F0AD14FF6FF7095
:101C10004FF478433122002100900320FFF7F8FBB6
:101C200009E04FF6FF704FF4784330220021009016
:101C30000320FFF7EDFBDE480C30008800F4804005
:101C4000B0F5804F0AD14FF478404FF6FF73312240
:101C5000002100901320FFF7DBFB09E04FF47840F0
:101C60004FF6FF733022002100901320FFF7D0FBC6
:101C7000CF480C30008800F40050B0F5005F0AD166
:101C80004FF6FF704FF4784331220021009023205B
:101C9000FFF7BEFB09E04FF6FF704FF478433022A8
:101CA000002100902320FFF7B3FBC1480C300088CF
:101CB00000F48050B0F5805F0AD14FF478404FF6C1
:101CC000FF733122002100903320FFF7A1FB09E0D0
:101CD0004FF478404FF6FF733022002100903320FC
:101CE000FFF796FBB2480C30008800F40060B0F5B6
:101CF000006F0AD14FF6FF704FF478433122002174
:101D000000904320FFF784FB09E04FF6FF704FF48B
:101D100078433022002100904320FFF779FBA4484C
:101D20000C30008800F48060B0F5806F0AD14FF469
:101D300078404FF6FF733122002100905320FFF7C7
:101D400067FB09E04FF478404FF6FF733022002123
:101D500000905320FFF75CFB95480C30008800F49E
:101D60000070B0F5007F0AD14FF6FF704FF4784352
:101D70003122002100906220FFF74AFB09E04FF674
:101D8000FF704FF478433022002100906220FFF76B
:101D90003FFB87480C30008800F48070B0F5807FEE
:101DA0000AD14FF478404FF6FF73312200210090A2
:101DB0006E20FFF72DFB09E04FF478404FF6FF73DC
:101DC0003022002100906E20FFF722FB78480C3073
:101DD000008800F0800080280AD14FF6FF704FF491
:101DE00078433122002100907A20FFF711FB09E0AF
:101DF0004FF6FF704FF478433022002100907A2094
:101E0000FFF706FB6A480C30008800F040004028CD
:101E10000AD14FF478404FF6FF7331220021009031
:101E20008620FFF7F5FA09E04FF478404FF6FF738C
:101E30003022002100908620FFF7EAFA5C480C303F
:101E4000008800F0200020280AD14FF6FF704FF4E0
:101E500078433122002100909220FFF7D9FA09E05F
:101E60004FF6FF704FF4784330220021009092200B
:101E7000FFF7CEFA4E480C30008800F01000102812
:101E80000AD14FF478404FF6FF73312200210090C1
:101E90009E20FFF7BDFA09E04FF478404FF6FF733C
:101EA0003022002100909E20FFF7B2FA40480C300B
:101EB000008800F0080008280AD14FF6FF704FF4A0
:101EC0007843312200210090AA20FFF7A1FA09E00F
:101ED0004FF6FF704FF47843302200210090AA2083
:101EE000FFF796FA32480C30008800F0040004280E
:101EF0000AD14FF478404FF6FF7331220021009051
:101F0000B620FFF785FA09E04FF478404FF6FF73EB
:101F1000302200210090B620FFF77AFA24480C30D6
:101F2000008800F0020002280AD14FF6FF704FF43B
:101F30007843312200210090C220FFF769FA09E0BE
:101F40004FF6FF704FF47843302200210090C220FA
:101F5000FFF75EFA16480C30008800F0010050B11F
:101F60004FF478404FF6FF73312200210090CE20CD
:101F7000FFF74EFA09E04FF478404FF6FF73302236
:101F800000210090CE20FFF743FA4FF6FF704FF488
:101F9000784331220F2100900020FFF739FA4FF6E5
:101FA000FF704FF4784335220F210090082003E0A2
:101FB00000380140140C0140FFF72AFA4FF4784032
:101FC0004FF6FF7331220F2100901020FFF720FA07
:101FD0004FF478404FF6FF7334220F210090182001
:101FE000FFF716FA4FF6FF704FF4784331220F21B6
:101FF00000902020FFF70CFA4FF6FF704FF4784363
:1020000033220F2100902820FFF702FA4FF4784086
:102010004FF6FF7331220F2100903020FFF7F8F9BF
:102020004FF478404FF6FF7332220F210090382092
:10203000FFF7EEF94FF6FF704FF4784331220F218E
:1020400000903E20FFF7E4F94FF6FF704FF478431D
:1020500031220F2100904620FFF7DAF94FF4784043
:102060004FF6FF7331220F2100904E20FFF7D0F979
:102070004FF478404FF6FF7330220F210090562026
:10208000FFF7C6F94FF6FF704FF4784339220F215E
:1020900000906220FFF7BCF94FF478404FF6FF73D1
:1020A00038220F2100906E20FFF7B2F94FF6FF7033
:1020B0004FF4784337220F2100907A20FFF7A8F9D8
:1020C0004FF478404FF6FF7336220F2100908620A0
:1020D000FFF79EF94FF6FF704FF4784335220F213A
:1020E00000909220FFF794F94FF478404FF6FF7379
:1020F00034220F2100909E20FFF78AF94FF6FF70DF
:102100004FF4784333220F210090AA20FFF780F983
:102110004FF478404FF6FF7332220F210090B62023
:10212000FFF776F94FF6FF704FF4784331220F2115
:102130000090C220FFF76CF94FF478404FF6FF7320
:1021400030220F210090CE20FFF762F9FE48008870
:1021500000F40040FC4908800121B1EBE03F09D1C7
:102160004FF6FF701F2331222D2100900320FFF72F
:102170004FF908E04FF6FF701F2330222D21009009
:102180000320FFF745F9F048008800F48040EE494D
:1021900008800121B1EBA03F09D11F204FF6FF734A
:1021A00031222D2100901320FFF732F908E01F2083
:1021B0004FF6FF7330222D2100901320FFF728F9EE
:1021C000E148008800F40050DF4908800121B1EBAC
:1021D000603F09D14FF6FF701F2331222D2100905F
:1021E0002320FFF715F908E04FF6FF701F23302278
:1021F0002D2100902320FFF70BF9D348008800F42D
:102200008050D14908800121B1EB203F09D11F2026
:102210004FF6FF7331222D2100903320FFF7F8F89D
:1022200008E01F204FF6FF7330222D21009033204D
:10223000FFF7EEF8C448008800F40060C249088047
:102240000121B1EBE02F09D14FF6FF701F2331229E
:102250002D2100904320FFF7DBF808E04FF6FF70D8
:102260001F2330222D2100904320FFF7D1F8B648DC
:10227000008800F48060B44908800121B1EBA02FF0
:1022800009D11F204FF6FF7331222D2100905320DA
:10229000FFF7BEF808E01F204FF6FF7330222D2114
:1022A00000905320FFF7B4F8A748008800F40070AE
:1022B000A54908800121B1EB602F09D14FF6FF70CD
:1022C0001F2331222D2100906220FFF7A1F808E0A2
:1022D0004FF6FF701F2330222D2100906220FFF760
:1022E00097F89948008800F4807097490880012188
:1022F000B1EB202F09D11F204FF6FF7331222D2182
:1023000000906E20FFF784F808E01F204FF6FF735F
:1023100030222D2100906E20FFF77AF88A4800883D
:1023200000F08000884908800121B1EBE01F09D14D
:102330004FF6FF701F2331222D2100907A20FFF7E6
:1023400067F808E04FF6FF701F2330222D21009020
:102350007A20FFF75DF87C48008800F040007A4959
:1023600008800121B1EBA01F09D11F204FF6FF7398
:1023700031222D2100908620FFF74AF808E01F2027
:102380004FF6FF7330222D2100908620FFF740F892
:102390006D48008800F020006B4908800121B1EBF6
:1023A000601F09D14FF6FF701F2331222D210090AD
:1023B0009220FFF72DF808E04FF6FF701F23302220
:1023C0002D2100909220FFF723F85F48008800F04D
:1023D00010005D490880012100E05AE1B1EB201FA7
:1023E00009D11F204FF6FF7331222D2100909E202E
:1023F000FFF70EF808E01F204FF6FF7330222D2163
:1024000000909E20FFF704F84F48008800F0080075
:102410004D4908800121B1EBE00F09D14FF6FF7063
:102420001F2331222D210090AA20FEF7F1FF08E0A2
:102430004FF6FF701F2330222D210090AA20FEF7B7
:10244000E7FF4148008800F004003F49088001216F
:10245000B1EBA00F09D11F204FF6FF7331222D21C0
:102460000090B620FEF7D4FF08E01F204FF6FF7360
:1024700030222D210090B620FEF7CAFF3248008896
:1024800000F00200304908800121B1EB600F09D152
:102490004FF6FF701F2331222D210090C220FEF73E
:1024A000B7FF08E04FF6FF701F2330222D21009068
:1024B000C220FEF7ADFF2448008800F00100224949
:1024C000088048B11F204FF6FF7331222D21009064
:1024D000CE20FEF79DFF08E01F204FF6FF7330224D
:1024E0002D210090CE20FEF793FF4FF6FF701F23A3
:1024F00031223C2100900020FEF78AFF4FF6FF704A
:102500001F2335223C2100900820FEF781FF1F2069
:102510004FF6FF7331223C2100901020FEF778FF28
:102520001F204FF6FF7334223C2100901820FEF745
:102530006FFF4FF6FF701F2331223C2100902020B7
:10254000FEF766FF02E00000043801404FF6FF701E
:102550001F2333223C2100902820FEF759FF1F2023
:102560004FF6FF7331223C2100903020FEF750FFE0
:102570001F204FF6FF7332223C2100903820FEF7D7
:1025800047FF4FF6FF701F2331223C2100903E2071
:10259000FEF73EFF4FF6FF701F2331223C210090D3
:1025A0004620FEF735FF1F204FF6FF7331223C21F6
:1025B00000904E20FEF72CFF1F204FF6FF733022B5
:1025C0003C2100905620FEF723FF4FF6FF701F239B
:1025D00039223C2100906220FEF71AFF1F204FF69F
:1025E000FF7338223C2100906E20FEF711FF4FF65A
:1025F000FF701F2337223C2100907A20FEF708FF4E
:102600001F204FF6FF7336223C2100908620FEF7F4
:10261000FFFE4FF6FF701F2335223C2100909220D1
:10262000FEF7F6FE1F204FF6FF7334223C21009088
:102630009E20FEF7EDFE4FF6FF701F2333223C2154
:102640000090AA20FEF7E4FE1F204FF6FF7332220F
:102650003C210090B620FEF7DBFE4FF6FF701F23F3
:1026600031223C210090C220FEF7D2FE1F204FF6FF
:10267000FF7330223C210090CE20FEF7C9FE4FF4BC
:10268000FC604FF4784352225A2100906220FEF7FA
:10269000BFFE1CBD00BFFEE708B50520FDF7FCFD31
:1026A00040F2CF2140F2E730FEF70AFFFDF786FE49
:1026B0000948FDF7EBFD4FF6FF704FF44873002219
:1026C0004FF4F07100901046FDF721FEFEF722FF57
:1026D000FEF7CAFF00BFFEE740420F000000000007
:1026E00000000000000000000000000000000000EA
:1026F00000001FCC000C00000000000000000800DB
:10270000300060000800300060000000022003FC80
:102710001E20022003FC1E200220000000000E18D4
:1027200011043FFF10840C78000000000F0010849B
:102730000F3800C0077818840078000000780F84F4
:1027400010C411240E9800E40084000808006800FA
:102750007000000000000000000000000000000009
:10276000000007E0181820044002000000004002AA
:102770002004181807E0000000000000024002409A
:1027800001800FF0018002400240000000800080C4
:1027900000800FF800800080008000000001000D24
:1027A000000E00000000000000000000000000809B
:1027B0000080008000800080008000800000000C0D
:1027C000000C0000000000000000000000000006F7
:1027D000001800600180060018002000000007F0CB
:1027E000080810041004080807F00000000008049E
:1027F00008041FFC000400040000000000000E0C90
:1028000010141024104411840E0C000000000C1849
:1028100010041104110412880C700000000000E084
:102820000320042408241FFC0024000000001F983B
:10283000108411041104108810700000000007F0CB
:1028400008881104110418880070000000001C00A2
:10285000100010FC13001C001000000000000E38D7
:1028600011441084108411440E3800000000070049
:10287000088C10441044088807F000000000000095
:102880000000030C030C000000000000000000002A
:1028900000010106000000000000000000000080B0
:1028A0000140022004100808100400000220022049
:1028B000022002200220022002200000000010045A
:1028C00008080410022001400080000000000E00F3
:1028D0001200100C106C10800F00000003E00C18A8
:1028E00013E4142417C4082807D000000004003C97
:1028F00003C41C40074000E4001C000410041FFC3B
:102900001104110411040E880070000003E00C187B
:1029100010041004100410081C10000010041FFC08
:10292000100410041004080807F0000010041FFC35
:102930001104110417C410040818000010041FFC2F
:102940001104110017C010000800000003E00C186B
:102950001004100410441C780040000010041FFCF8
:1029600010840080008010841FFC100400001004FC
:1029700010041FFC100410040000000000030001FC
:10298000100110011FFE10001000000010041FFCB9
:10299000110403801464181C1004000010041FFCB0
:1029A0001004000400040004000C000010041FFCCC
:1029B0001F0000FC1F001FFC1004000010041FFC7F
:1029C0000C04030000E010181FFC100007F00808BA
:1029D000100410041004080807F0000010041FFC85
:1029E00010841080108010800F00000007F008187D
:1029F00010241024101C080A07F2000010041FFC09
:102A00001104110011C011300E0C000400000E1C46
:102A100011041084108410441C38000018001000A9
:102A200010041FFC100410001800000010001FF814
:102A300010040004000410041FF8100010001E0011
:102A400011E0001C007013801C0010001FC0103C1F
:102A500000E01F0000E0103C1FC000001004180C34
:102A6000163401C001C01634180C100410001C00EC
:102A7000130400FC13041C00100000000804101CC8
:102A80001064108413041C041018000000000000DF
:102A900000007FFE400240024002000000003000C3
:102AA0000C0003800060001C0003000000004002D6
:102AB000400240027FFE0000000000000000000015
:102AC0002000400040004000200000000001000104
:102AD00000010001000100010001000100004000B0
:102AE00040002000000000000000000000000098EE
:102AF000012401440144014400FC000410001FFCB7
:102B000000880104010400880070000000000070CB
:102B10000088010401040104008800000000007026
:102B200000880104010411081FFC0004000000F8E3
:102B3000014401440144014400C8000000000104B4
:102B400001040FFC1104110411001800000000D64C
:102B500001290129012901C90106000010041FFCF7
:102B6000008401000100010400FC000400000104D5
:102B7000190419FC00040004000000000000000318
:102B800000010101190119FE0000000010041FFCE2
:102B90000024004001B4010C0104000000001004F6
:102BA00010041FFC0004000400000000010401FCEC
:102BB0000104010001FC0104010000FC010401FC0E
:102BC000008401000100010400FC0004000000F882
:102BD000010401040104010400F80000010101FFE7
:102BE00000850104010400880070000000000070EE
:102BF000008801040104010501FF00010104010432
:102C000001FC00840104010001800000000000CCF0
:102C10000124012401240124019800000000010086
:102C2000010007F80104010400000000010001F8A0
:102C3000000400040004010801FC000401000180FC
:102C40000170000C001001600180010001F0010C16
:102C5000003001C00030010C01F00100000001044F
:102C6000018C00740170018C0104000001010181DC
:102C70000171000E00180160018001000000018454
:102C8000010C013401440184010C0000000000002B
:102C90000000000001003EFC400240020000000075
:102CA00000000000FFFF00000000000000004002E4
:102CB00040023EFC01000000000000000000600037
:102CC000800080004000400020002000EC2C000824
:102CD00000000020040000006C010008F02C000837
:102CE00004000020640600008801000800000000C5
:0400000508000131BD
:00000001FF
